{
  "_format": "hh3-artifact-1",
  "contractName": "AliasStorage",
  "sourceName": "contracts/AliasStorage.sol",
  "abi": [
    {
      "inputs": [
        {
          "internalType": "string",
          "name": "",
          "type": "string"
        }
      ],
      "name": "addresses",
      "outputs": [
        {
          "internalType": "address",
          "name": "",
          "type": "address"
        }
      ],
      "stateMutability": "view",
      "type": "function"
    },
    {
      "inputs": [
        {
          "internalType": "address",
          "name": "",
          "type": "address"
        }
      ],
      "name": "aliases",
      "outputs": [
        {
          "internalType": "string",
          "name": "",
          "type": "string"
        }
      ],
      "stateMutability": "view",
      "type": "function"
    },
    {
      "inputs": [],
      "name": "deleteMyAlias",
      "outputs": [],
      "stateMutability": "nonpayable",
      "type": "function"
    },
    {
      "inputs": [
        {
          "internalType": "string",
          "name": "_alias",
          "type": "string"
        }
      ],
      "name": "getAddressByAlias",
      "outputs": [
        {
          "internalType": "address",
          "name": "",
          "type": "address"
        }
      ],
      "stateMutability": "view",
      "type": "function"
    },
    {
      "inputs": [
        {
          "internalType": "address",
          "name": "addr",
          "type": "address"
        }
      ],
      "name": "getAliasByAddress",
      "outputs": [
        {
          "internalType": "string",
          "name": "",
          "type": "string"
        }
      ],
      "stateMutability": "view",
      "type": "function"
    },
    {
      "inputs": [
        {
          "internalType": "string",
          "name": "_alias",
          "type": "string"
        }
      ],
      "name": "setAlias",
      "outputs": [],
      "stateMutability": "nonpayable",
      "type": "function"
    }
  ],
  "bytecode": "0x6080604052348015600e575f5ffd5b506107928061001c5f395ff3fe608060405234801561000f575f5ffd5b5060043610610060575f3560e01c80636a293d0414610064578063aa43308c14610079578063bdfe7d4714610081578063c3bf2ba4146100d2578063c70f05be146100f2578063ed1d96d814610105575b5f5ffd5b610077610072366004610481565b610118565b005b6100776101f0565b6100b561008f366004610481565b80516020818301810180516001825292820191909301209152546001600160a01b031681565b6040516001600160a01b0390911681526020015b60405180910390f35b6100e56100e0366004610534565b6102ab565b6040516100c99190610561565b6100b5610100366004610481565b610342565b6100e5610113366004610534565b610372565b5f6001600160a01b03166001826040516101329190610596565b908152604051908190036020019020546001600160a01b0316146101945760405162461bcd60e51b8152602060048201526014602482015273416c69617320616c72656164792065786973747360601b60448201526064015b60405180910390fd5b335f9081526020819052604090206101ac8282610630565b50336001826040516101be9190610596565b90815260405190819003602001902080546001600160a01b03929092166001600160a01b031990921691909117905550565b335f9081526020819052604081208054610209906105ac565b9050116102585760405162461bcd60e51b815260206004820152601760248201527f596f7520646f6e2774206861766520616e20616c696173000000000000000000604482015260640161018b565b335f90815260208190526040908190209051600191610276916106eb565b908152604080516020928190038301902080546001600160a01b0319169055335f9081529182905281206102a99161041b565b565b5f60208190529081526040902080546102c3906105ac565b80601f01602080910402602001604051908101604052809291908181526020018280546102ef906105ac565b801561033a5780601f106103115761010080835404028352916020019161033a565b820191905f5260205f20905b81548152906001019060200180831161031d57829003601f168201915b505050505081565b5f6001826040516103539190610596565b908152604051908190036020019020546001600160a01b031692915050565b6001600160a01b0381165f908152602081905260409020805460609190610398906105ac565b80601f01602080910402602001604051908101604052809291908181526020018280546103c4906105ac565b801561040f5780601f106103e65761010080835404028352916020019161040f565b820191905f5260205f20905b8154815290600101906020018083116103f257829003601f168201915b50505050509050919050565b508054610427906105ac565b5f825580601f10610436575050565b601f0160209004905f5260205f20908101906104529190610455565b50565b5b80821115610469575f8155600101610456565b5090565b634e487b7160e01b5f52604160045260245ffd5b5f60208284031215610491575f5ffd5b813567ffffffffffffffff8111156104a7575f5ffd5b8201601f810184136104b7575f5ffd5b803567ffffffffffffffff8111156104d1576104d161046d565b604051601f8201601f19908116603f0116810167ffffffffffffffff811182821017156105005761050061046d565b604052818152828201602001861015610517575f5ffd5b816020840160208301375f91810160200191909152949350505050565b5f60208284031215610544575f5ffd5b81356001600160a01b038116811461055a575f5ffd5b9392505050565b602081525f82518060208401528060208501604085015e5f604082850101526040601f19601f83011684010191505092915050565b5f82518060208501845e5f920191825250919050565b600181811c908216806105c057607f821691505b6020821081036105de57634e487b7160e01b5f52602260045260245ffd5b50919050565b601f82111561062b57805f5260205f20601f840160051c810160208510156106095750805b601f840160051c820191505b81811015610628575f8155600101610615565b50505b505050565b815167ffffffffffffffff81111561064a5761064a61046d565b61065e8161065884546105ac565b846105e4565b6020601f821160018114610690575f83156106795750848201515b5f19600385901b1c1916600184901b178455610628565b5f84815260208120601f198516915b828110156106bf578785015182556020948501946001909201910161069f565b50848210156106dc57868401515f19600387901b60f8161c191681555b50505050600190811b01905550565b5f5f83546106f8816105ac565b60018216801561070f576001811461072457610751565b60ff1983168652811515820286019350610751565b865f5260205f205f5b838110156107495781548882015260019091019060200161072d565b505081860193505b50919594505050505056fea264697066735822122020cae9d5e81b130623b2d7656b38bdbf091034fb0219c0c1aa1c54242cccc2af64736f6c634300081c0033",
  "linkReferences": {},
  "deployedLinkReferences": {},
  "immutableReferences": {},
  "inputSourceName": "project/contracts/AliasStorage.sol",
  "buildInfoId": "solc-0_8_28-5991b97c78a3e3f29c5af195799deabd08fbb0fa"
}