{
  "_format": "hh3-artifact-1",
  "contractName": "AliasStorage",
  "sourceName": "contracts/AliasStorage.sol",
  "abi": [
    {
      "inputs": [
        {
          "internalType": "string",
          "name": "",
          "type": "string"
        }
      ],
      "name": "addressesByAlias",
      "outputs": [
        {
          "internalType": "address",
          "name": "",
          "type": "address"
        }
      ],
      "stateMutability": "view",
      "type": "function"
    },
    {
      "inputs": [
        {
          "internalType": "address",
          "name": "",
          "type": "address"
        }
      ],
      "name": "aliasesByAddress",
      "outputs": [
        {
          "internalType": "string",
          "name": "",
          "type": "string"
        }
      ],
      "stateMutability": "view",
      "type": "function"
    },
    {
      "inputs": [],
      "name": "deleteMyAlias",
      "outputs": [],
      "stateMutability": "nonpayable",
      "type": "function"
    },
    {
      "inputs": [
        {
          "internalType": "string",
          "name": "_alias",
          "type": "string"
        }
      ],
      "name": "getAddressByAlias",
      "outputs": [
        {
          "internalType": "address",
          "name": "",
          "type": "address"
        }
      ],
      "stateMutability": "view",
      "type": "function"
    },
    {
      "inputs": [
        {
          "internalType": "address",
          "name": "addr",
          "type": "address"
        }
      ],
      "name": "getAliasByAddress",
      "outputs": [
        {
          "internalType": "string",
          "name": "",
          "type": "string"
        }
      ],
      "stateMutability": "view",
      "type": "function"
    },
    {
      "inputs": [
        {
          "internalType": "string",
          "name": "_alias",
          "type": "string"
        }
      ],
      "name": "setAlias",
      "outputs": [],
      "stateMutability": "nonpayable",
      "type": "function"
    }
  ],
  "bytecode": "0x6080604052348015600e575f5ffd5b506108618061001c5f395ff3fe608060405234801561000f575f5ffd5b5060043610610060575f3560e01c80631a8194a1146100645780636a293d04146100b5578063aa43308c146100ca578063b0540fcc146100d2578063c70f05be146100f2578063ed1d96d814610105575b5f5ffd5b610098610072366004610550565b80516020818301810180516001825292820191909301209152546001600160a01b031681565b6040516001600160a01b0390911681526020015b60405180910390f35b6100c86100c3366004610550565b610118565b005b6100c86102bf565b6100e56100e0366004610603565b61037a565b6040516100ac9190610630565b610098610100366004610550565b610411565b6100e5610113366004610603565b610441565b5f6001600160a01b03166001826040516101329190610665565b908152604051908190036020019020546001600160a01b0316146101945760405162461bcd60e51b8152602060048201526014602482015273416c69617320616c72656164792065786973747360601b60448201526064015b60405180910390fd5b335f90815260208190526040812080546101ad9061067b565b80601f01602080910402602001604051908101604052809291908181526020018280546101d99061067b565b80156102245780601f106101fb57610100808354040283529160200191610224565b820191905f5260205f20905b81548152906001019060200180831161020757829003601f168201915b505050505090505f81511115610262576001816040516102449190610665565b90815260405190819003602001902080546001600160a01b03191690555b335f90815260208190526040902061027a83826106ff565b503360018360405161028c9190610665565b90815260405190819003602001902080546001600160a01b03929092166001600160a01b03199092169190911790555050565b335f90815260208190526040812080546102d89061067b565b9050116103275760405162461bcd60e51b815260206004820152601760248201527f596f7520646f6e2774206861766520616e20616c696173000000000000000000604482015260640161018b565b335f90815260208190526040908190209051600191610345916107ba565b908152604080516020928190038301902080546001600160a01b0319169055335f908152918290528120610378916104ea565b565b5f60208190529081526040902080546103929061067b565b80601f01602080910402602001604051908101604052809291908181526020018280546103be9061067b565b80156104095780601f106103e057610100808354040283529160200191610409565b820191905f5260205f20905b8154815290600101906020018083116103ec57829003601f168201915b505050505081565b5f6001826040516104229190610665565b908152604051908190036020019020546001600160a01b031692915050565b6001600160a01b0381165f9081526020819052604090208054606091906104679061067b565b80601f01602080910402602001604051908101604052809291908181526020018280546104939061067b565b80156104de5780601f106104b5576101008083540402835291602001916104de565b820191905f5260205f20905b8154815290600101906020018083116104c157829003601f168201915b50505050509050919050565b5080546104f69061067b565b5f825580601f10610505575050565b601f0160209004905f5260205f20908101906105219190610524565b50565b5b80821115610538575f8155600101610525565b5090565b634e487b7160e01b5f52604160045260245ffd5b5f60208284031215610560575f5ffd5b813567ffffffffffffffff811115610576575f5ffd5b8201601f81018413610586575f5ffd5b803567ffffffffffffffff8111156105a0576105a061053c565b604051601f8201601f19908116603f0116810167ffffffffffffffff811182821017156105cf576105cf61053c565b6040528181528282016020018610156105e6575f5ffd5b816020840160208301375f91810160200191909152949350505050565b5f60208284031215610613575f5ffd5b81356001600160a01b0381168114610629575f5ffd5b9392505050565b602081525f82518060208401528060208501604085015e5f604082850101526040601f19601f83011684010191505092915050565b5f82518060208501845e5f920191825250919050565b600181811c9082168061068f57607f821691505b6020821081036106ad57634e487b7160e01b5f52602260045260245ffd5b50919050565b601f8211156106fa57805f5260205f20601f840160051c810160208510156106d85750805b601f840160051c820191505b818110156106f7575f81556001016106e4565b50505b505050565b815167ffffffffffffffff8111156107195761071961053c565b61072d81610727845461067b565b846106b3565b6020601f82116001811461075f575f83156107485750848201515b5f19600385901b1c1916600184901b1784556106f7565b5f84815260208120601f198516915b8281101561078e578785015182556020948501946001909201910161076e565b50848210156107ab57868401515f19600387901b60f8161c191681555b50505050600190811b01905550565b5f5f83546107c78161067b565b6001821680156107de57600181146107f357610820565b60ff1983168652811515820286019350610820565b865f5260205f205f5b83811015610818578154888201526001909101906020016107fc565b505081860193505b50919594505050505056fea264697066735822122097aa60e7b5daaf29c96f049932c8dc8840f869ea66ba697cc9b7a7f3474a718064736f6c634300081c0033",
  "linkReferences": {},
  "deployedLinkReferences": {},
  "immutableReferences": {},
  "inputSourceName": "project/contracts/AliasStorage.sol",
  "buildInfoId": "solc-0_8_28-68b4a48c07d482a88701098951e96de53730fbae"
}